:02000000A62B2D
:10000800FF00030E8301B5000A08B4008A017008D6
:10001800A1007108A0002408A2002508A3008B13E2
:100028000B1D3A280B11AD0A2D08033A031D24288D
:10003800AD012908BF002608C00051239423A0233E
:100048002D08023A031D2F282A08BF002708C000E0
:10005800512394234B232D08013A031D3A282B08DA
:10006800BF002808C000512394239A238B1C4C28D6
:10007800B914B91D4C28AE0A2E08643A031D4C2841
:10008800AE01B00A30083C3A031D4C28AF0AB00153
:10009800063081008B100B118B172208A40023084F
:1000A800A5002108F0002008F10034088A00350E68
:0800B8008300FF0E7F0E09001A
:1000C000710DF80DF90D7408F8027508031C750F11
:1000D000F902F00DF10D0F30FC00710DF80DF90D66
:1000E0007408701C7928F8027508031C750FF90252
:1000F0007E28F80775080318750FF907F00DF10D44
:10010000FC0B6D2870188A287408F8077508031806
:08011000750FF907000008005B
:10011800831203137408003A031D9B287508003ADC
:10012800031D9B28FF30F0007F30F100F428831274
:100138000313FD01F901F801710870040319003473
:1001480071087506FA00FA1BFD09FB01F51FB128B5
:10015800F409F509F40A0319F50AF11FB828F0099A
:10016800F109F00A0319F10A71087504FA00FA1B7B
:10017800CD2860207B18E028FD1F0034F009F10924
:10018800F00A0319F10AF809F909F80A0319F90A32
:100198000034F51FDC28F11BD8287108F900700815
:1001A800F800F101F001C028F101F001F00A003473
:1001B800F109F009FB0ABD28F80A0319F90A7408BD
:1001C8007802031DC02875087902031DC028F901AB
:1001D800F801F00A0319F10AF11FC0280000FF34E2
:0201E80008000D
:1001EA00831203133B0803178D0083168C130C1418
:0801FA0083120C08F00008005C
:0E0202008312031325088A00240882000800D6
:100210000A3083120313F4000030F5003B08F000AD
:100220003C08F1008C207808F0007908F100700893
:10023000A6000A30F4000030F5003B08F0003C084E
:10024000F1008C207008BD007108BE003D08BB00A5
:100250003E08BC000A30F4000030F5003D08F00014
:100260003E08F1008C207808F0007908F100700851
:10027000A7000A30F4000030F5003D08F0003E0809
:10028000F1008C207008BB007108BC000A30F4003B
:100290000030F5008C207808F0007908F100700833
:0402A000A8000800AA
:1002A400831203133B0803178D0003133C08031741
:1002B4008C0083168C130C150B08F0008B01553041
:1002C4008D00AA308D008C1470088B000C118312E1
:0C02D40003130D1A6E2969290D12080091
:1002E000831203132C08003A031D3B2A3108A9008E
:1002F0000B30AA000C30AB00391DCA29081BCA29D3
:10030000881ACA29881BCA29081ACA293108013A39
:10031000031DCA291330A6000A30A7000A30A8001E
:100320003430FC00F130FD00FD0B9429FC0B9429C6
:10033000000000000A30A6001330A7000A30A80011
:100340003430FC00F130FD00FD0BA429FC0BA42986
:10035000000000000A30A6000A30A7001330A800F1
:100360003430FC00F130FD00FD0BB429FC0BB42946
:10037000000000000A30A6000A30A7000A30A800DA
:100380001A30FC00F830FD00FD0BC429FC0BC42919
:1003900000007C29391DD6293108013A0319D629D4
:1003A0000A30A6000A30A7000A30A8003919DE2951
:1003B0000A30A6000A30A7000A30A800081FF62954
:1003C0003919F6291A30FC00F830FD00FD0BE6293A
:1003D000FC0BE6290000081FF629AC0A2C08033A9A
:1003E000031DF329AC01081FF629F329881E0C2AE6
:1003F0003108013A031D0C2A1A30FC00F830FD00C8
:10040000FD0B002AFC0B002A0000881E0C2A043079
:10041000B906881E0C2A092A881F212A391D212A7B
:100420001A30FC00F830FD00FD0B142AFC0B142AD6
:100430000000881F212A0530AC00B915881F212A29
:100440001E2A081E3A2A39193A2A1A30FC00F830B6
:10045000FD00FD0B292AFC0B292A0000081E3A2A60
:10046000B10A3108063A031D372A0130B100081ECF
:100470003A2A372A70292C08013A031DAF2A09307D
:10048000A9000E30AA000D30AB003308BB00BC0140
:1004900008213108BB00F52070080313B300081EC3
:1004A000742A1A30FC00F830FD00FD0B552AFC0BB5
:1004B000552A0000081E742AB30A9C30FC00D7306D
:1004C000FD00FD0B612AFC0B612A3308C83C0318B0
:1004D0006A2AB3013108BB003308BC00522133083B
:1004E000BB00BC0108215A2A881E982A1A30FC0039
:1004F000F830FD00FD0B7A2AFC0B7A2A0000881EDA
:10050000982AB3039C30FC00D730FD00FD0B862AEF
:10051000FC0B862A3308FF3A031D8F2AB3013108EA
:10052000BB003308BC0052213308BB00BC010821CA
:10053000081FAE2A1A30FC00F830FD00FD0B9E2A81
:10054000FC0B9E2A0000081FAE2AAC0A2C08033AB6
:10055000031DAB2AAC01081FAE2AAB2A3B2A2C088C
:10056000023A031D142B1130A9000B30AA001030E1
:10057000AB003208BB00BC01082105303107BB00CD
:10058000F52070080313B200081EE02A1A30FC00A0
:10059000F830FD00FD0BCA2AFC0BCA2A0000081E19
:1005A000E02AB20A3208033C0318D72AB201053008
:1005B0003107BB003208BC005221081EE02ADD2AA8
:1005C000881EFD2A1A30FC00F830FD00FD0BE62ADB
:1005D000FC0BE62A0000881EFD2AB2033208FF3A0F
:1005E000031DF42A0330B20005303107BB00320886
:1005F000BC005221881EFD2AFA2A081F132B1A302C
:10060000FC00F830FD00FD0B032BFC0B032B00005E
:10061000081F132BAC0A2C08033A031D102BAC0146
:0A062000081F132B102BAF2A08004F
:10062A000B168316031301138B1003170912080004
:10063A0001218A110A128000840AA40A0319A50A50
:08064A00F003031D1D2B080045
:10065200831603178801890183128713881383166F
:100662000313870183128701831685018312850193
:100672008316890101308600FF30880081128111C2
:100682000110811401110630831281000B118B16A7
:040692008B170800BA
:0C069600831203130712871607130800D5
:1006A2008312031340087D3EF00004300318013E1C
:1006B200F1007008A4007108A50001218A110A1234
:1006C200B6003F087D3EF00004300318013EF10001
:1006D2007008A4007108A50001218A110A12B7004E
:1006E200B8013808073C031C822BB61F7A2B8714EB
:1006F2007B2B8710B60D3610071500000711B80ABC
:10070200722BB8013808073C031C932BB71F8B2BA5
:1007120087148C2B8710B70D3710071500000711AF
:06072200B80A832B080059
:0C072800831203138715000087110800DE
:0C07340083120313071687120713080036
:0C0740008312031307128712071708002A
:10074C0083120313A601A701A801A901AA01AB01F9
:10075C00AC01AD01AE01AF01B0010130B100B2018D
:10076C00B30129231523831203133911B911B910BD
:10077C0039100130BA000B303A020318D42B3A0866
:10078C00BB00F5207008FF3A031DD12B03133A0868
:10079C00BB00BC0152210313BA0AC12BB919D72BC8
:1007AC007021B91D222C2C08053A031D222C31086E
:1007BC00A9000B30AA000C30AB003008BB00BC0108
:1007CC0008213108023A031DED2B3914EE2B391098
:1007DC0005303107BB00F52070080313B200310857
:1007EC00BB00F52070080313B30070082F02031828
:1007FC00042C3208003A0319042C0E2CB10AAF0158
:10080C003108063A031D0E2CB911AC010130B100B0
:10081C00881F222C1A30FC00F830FD00FD0B142C24
:10082C00FC0B142C0000881F222CAC01B9113910C0
:10083C008511881F222C1F2C3918262C0910272CC7
:10084C000914B91C7B2C3208013A031D422C0330CD
:10085C00FC009730FD00FD0B312CFC0B312C000003
:10086C00000085151530FC00C630FD00FD0B3C2C3E
:10087C00FC0B3C2C000085113208023A031D5B2C4A
:10088C000B30FC006230FD00FD0B4A2CFC0B4A2C9B
:10089C00000085150D30FC00FB30FD00FD0B542CC9
:1008AC00FC0B542C0000000085113208033A031D88
:1008BC00742C1530FC00C630FD00FD0B632CFC0BBA
:1008CC00632C000085150330FC009730FD00FD0BF8
:1008DC006D2CFC0B6D2C0000000085113208003AC9
:0E08EC00031D7A2C85110910B910D42B7C2C19
:1008FA003F3406345B344F3466346D347D34073408
:10090A007F346F3400345E34BD347834F434F334D5
:08091A00B9345C348034403430
:04400E00F52E000784
:00000001FF
